:020000040800F2
:10000000380F0020C1010008CD1A00085116000861
:100010009B170008690E0008DD240008000000009E
:10002000000000000000000000000000991E000811
:100030006112000800000000A11B00080120000858
:10004000DB010008DB010008DB010008DB01000820
:10005000DB010008DB010008DB010008DB01000810
:10006000DB010008DB010008DB010008DB01000800
:10007000DB010008DB010008DB010008DB010008F0
:10008000DB010008DB010008DB010008DB010008E0
:10009000DB010008DB010008DB010008DB010008D0
:1000A000DB010008DB010008DB010008DB010008C0
:1000B000DB010008DB010008DB010008DB010008B0
:1000C000DB010008DB010008DB010008DB010008A0
:1000D000DB010008C121000829220008792200085C
:1000E000DB010008DB010008DB010008DB01000880
:1000F000DB010008DB010008DB010008DB01000870
:10010000DB010008DB010008DB010008DB0100085F
:1001100021210008DB010008DB010008DB010008E9
:10012000DB010008DB010008DB010008DB0100083F
:10013000DB010008DB010008DB010008DB0100082F
:10014000DB010008DB010008DB010008DB0100081F
:10015000DB010008DB010008DB0100080D230008BB
:10016000DB010008DB010008DB010008DB010008FF
:10017000DB010008DB010008DB010008DB010008EF
:10018000DB010008DB01000871210008DB01000829
:10019000DB010008DB010008DB010008DB010008CF
:1001A000DB010008DB010008DB010008DFF80CD0F0
:1001B00000F024FB004800470D2A0008380F0020FB
:1001C0000648804706480047FEE7FEE7FEE7FEE7F1
:1001D000FEE7FEE7FEE7FEE7FEE7FEE7C5200008D4
:1001E000AD0100080FB400B58DB010A909900B90B7
:1001F00000914FF0FF300A9000200C9005480690C7
:10020000054807906A4609A80F9900F0BFF90DB09C
:100210005DF814FBA9050008C70500082DE9FF4F8C
:10022000087881B09946FF2805D0491C2D2804D0B4
:100230000024002308E000230BE00124F9E703EB8E
:10024000830300EB4303491C0878FF28F7D104B16E
:100250005B4200200090147801462D2C01D02B2CFD
:1002600004D1521C2D2C12D00024009400251678A5
:10027000FF2E0ED00A24A0FB04C801FB0481002736
:1002800000FB0711521C16EB0C006941EFE701243B
:10029000EBE7994450EA01020ED00024AA4D26460D
:1002A000DFF8A88200F081FA82468B46B9F100009F
:1002B00009DAC9F100071BE001980021C0E900112B
:1002C00005B0BDE8F08F074612E0F80707D02246D8
:1002D0002B463046414600F087F9064688462246BE
:1002E0002B461046194600F07FF904460D467F1054
:1002F000002FEAD1B9F1000F324643465046594625
:1003000002DA00F0E3F901E000F06EF9009A0AB1B8
:1003100081F00041019AC2E90001D1E72DE9FF4FC8
:100320001F468DB0D7E901464FF0FF382E204546D5
:100330004FF000090B90B9696D1C0E988847396A17
:10034000824688470028F6D1BAF1FF3F0AD024F44C
:10035000D064002E11DDBAF12B0F08D0BAF12D0FA9
:100360000BD102E0404611B0ABE744F48064B969B8
:100370006D1C0E9888478246761E6946600501D539
:100380002D2000E02B208DF8000001F1010B0DF174
:10039000200809E0B9696D1C0E98884782460F98BD
:1003A00044F40074761E0560002E02DDBAF1300FB1
:1003B000F0D00B998A453ED144F0800406E00F99B5
:1003C000681CA9F1010944F400740860B9696D1C46
:1003D000761E0E98884782463028F0D02BE00B9985
:1003E0008A4505D1200603D444F08004761E18E027
:1003F000504602F054FA08B30DF11301761E44F48E
:1004000000748B4508D2AAF130000BF8010B2006CE
:1004100007D5A9F1010003E0200602D409F101008B
:100420008146A00502D50F99681C0860B9696D1C4A
:100430000E9888478246002ED1DC53E0002E51DD15
:10044000BAF1650F02D0BAF1450F4BD1A00549D5DD
:10045000B9696D1C24F44074761E0E988847824654
:10046000002E0CDD2B2804D0BAF12D0F07D144F457
:100470008074B9696D1C0E9888478246761EE00527
:1004800001D52D2100E02B2108F8011BCDF82C808F
:1004900021E00DF12901761E44F4007488450CD248
:1004A000AAF1300010F0FF0088F8000002D10B998B
:1004B000884509D908F1010806E0E00501D524487E
:1004C00001E042F20F708146B9696D1C0E988847B1
:1004D00082460F980560002E04DD504602F0DFF9D9
:1004E0000028D6D1F9690E988847FF208BF80000C4
:1004F00088F800000020069007904B466A4608A93D
:1005000006A8FFF78BFEA00502D46FF001002AE7D2
:1005100014F0240F0AD0E00714D1DDE90612386880
:10052000031D3B600068C0E900120BE0DDE9060135
:1005300000F047F90146E00704D13868021D3A602F
:100540000068016028460EE7000024400000F03FEC
:10055000F1D8FFFF30B50B460146002020220124D0
:1005600009E021FA02F59D4205D303FA02F5491B81
:1005700004FA02F52844151EA2F10102F1DC30BD97
:10058000026811441378016018467047D16004492D
:1005900051610449116200211161114600F064B9F2
:1005A000810500085F080008426842B1016811F83F
:1005B000013B23B1521EC0E90012184670470121C9
:1005C000C160881E704742685AB1C368016843B968
:1005D00083688B4205D0491E521CC0E900120020DE
:1005E00070474FF0FF3070472DE9FE4F81EA03045A
:1005F00004F0004421F0004100944FF0000B23F080
:10060000004350EA01045ED052EA03045BD0C3F316
:100610000A54C1F30A552C44A4F2F3340194A0FB0C
:100620000254C1F3130141F48011C3F3130343F4E3
:10063000801301FB024400FB034E840A970A44EA3C
:10064000815447EA8357A4FB076802958D0A05FB8E
:1006500007854FEA932C04FB0C542705029D4FEAB3
:10066000065847EA1637B5EB08056EEB070C870E00
:10067000920E47EA811742EA8312A7FB0201B6EB0A
:100680000B0164EB00042B0D43EA0C335E1844EBC2
:100690001C50DA465146E7FB0201C5F313044FEA4A
:1006A0000B3343EA14534FEA0432019C43EA060336
:1006B000A4F10C040294009CCDE900B400F0B0FA5F
:1006C00003B0BDE8F08F00200146F9E72DE9F04DB9
:1006D00081EA030404F0004B21F0004514464FF07A
:1006E000000A23F0004150EA050220D054EA01023A
:1006F0001DD0C5F30A570246C5F31303C1F3130017
:10070000C1F30A5640F4801543F48013A7EB0608A2
:10071000101BD64608F2FD3873EB050002D308F132
:10072000010801E092185B41B8F1000F03DA0020E4
:100730000146BDE8F08D00204FF480110646844646
:100740000EE0171B73EB050705D3121B63EB0503C4
:1007500006434CEA010C49084FEA300092185B410D
:1007600050EA0107EDD152EA030012D082EA0400F8
:1007700083EA0501084305D0101BAB4106D20122D4
:10078000002306E000224FF0004302E06FF0010278
:1007900053101AEB06004CEB085110EB0A0041EB2A
:1007A0000B01BDE8F04D00F02CBA0EB540F233421B
:1007B00002920022CDE90022134600F031FA03B084
:1007C00000BD01F0004330B421F0004150EA0102C5
:1007D00006D00A0DA2F56072C1F31301002A02DCF3
:1007E00030BC00207047440F44EAC104C100E01847
:1007F00030BC00EBC25000F0CDB90000064C074DF4
:1008000006E0E06840F0010394E8070098471034E0
:10081000AC42F6D3FFF7CEFC242D0008442D00088F
:10082000202A04DB203A00FA02F1002070479140B0
:10083000C2F1200320FA03F3194390407047202AA5
:1008400004DB203A21FA02F00021704721FA02F37A
:10085000D040C2F120029140084319467047C0B20F
:100860004FF4F05100F02ABA2DE9F34F8BB04FF05E
:10087000000801F10C000C464FF0010B46460DF14B
:10088000080A0190626901210198904705002DD066
:10089000252D2CD0216A8847C0B1626901210198B9
:1008A0009047216A88470028F7D1411E6269019864
:1008B000904700E0761CA1690B988847216A884719
:1008C0000028F7D1E1690B988847DBE7A1690B980D
:1008D00088470746A84201D1761CD3E7E1690B9807
:1008E00088477F1C02D1B8F1000F6FD046E1002786
:1008F00062693D463946019890472A2804D16269C9
:100900000121019890470125DFF884926269012155
:1009100001989047A0F130010A290AD24F45E5DC41
:1009200007EB870100EB4107303FDFD445F01005AE
:10093000ECE7E90601D46FF000476C280AD04C2898
:1009400014D0682815D06A280DD074281CD07A28B5
:100950001AD01DE062690121019890476C2802D0ED
:1009600045F0040514E045F002050DE045F02005D2
:100970000AE06269012101989047682802D045F099
:10098000080505E045F4006562690121019890477A
:10099000C4E9015765283DD019DC58287AD00CDC11
:1009A000452837D004DC252826D0412831D131E034
:1009B00046282FD047282CD12CE05B2877D06128FF
:1009C00028D063287CD0642823D15AE0D0E06F2857
:1009D00048D008DC66281DD067281BD0692821D0A4
:1009E0006E2816D127E0702845D0732868D0752866
:1009F00047D078280DD14DE0A1690B98884705466E
:100A000025283FF469AFE1690B9888476D1C3FF4D6
:100A10006AAFB3E023466A466FF001000B99FFF717
:100A20007DFC9EE045F040006060A80723464FF043
:100A3000000236D43EE0E8077FF447AF2068011D8E
:100A400021600068290501D506701BE7290701D53B
:100A5000068017E7A90703D5F117C0E9006111E780
:100A600006600FE745F040006060A80723464FF09E
:100A7000080216D41EE040F60E0125EA010060606F
:100A800016E045F040006060A80723464FF00A02D8
:100A900007D40FE045F040006060A80708D5234662
:100AA00010226FF001000B99AFF3008059E007E0CE
:100AB000234610226FF001000B99AFF3008050E045
:100AC0004FF000094F464B46632802D05B2806D002
:100AD00040E0E80601D40120A06001273AE0626905
:100AE0000121019890475E2805D14FF00109626904
:100AF000494601989047216939B900210A46534671
:100B000043F82120491C0829FADBB0B3216969B9EF
:100B1000C11700EBD16253110AEB830122F01F02CF
:100B2000821A01200B68904003430B606269012127
:100B3000019890475D28E8D1B9F1000F09D0002055
:100B4000514651F82020D24341F82020401C08286B
:100B5000F7DB02AB224600976FF001000B99AFF371
:100B6000008000280CDA401C08D1BBF1000F05D032
:100B70004FF0FF300DB0BDE8F08FFFE74046F9E7DA
:100B8000E90701D108F1010806444FF0000B79E6AE
:100B9000CCCCCC0C0029A8BF7047401C490008BF32
:100BA00020F00100704710B4B0FA80FC00FA0CF09D
:100BB00050EA010404BF10BC704749B1CCF12004D5
:100BC00021FA04F411FA0CF118BF01212143084362
:100BD000A3EB0C01CB1D4FEA00614FEA102042BF8E
:100BE000002010BC704700EBC35010440029A4BF84
:100BF00010BC7047401C490008BF20F0010010BC29
:100C0000704710B5141E73F1000408DA401C41F15E
:100C1000000192185B411A4301D120F0010010BD80
:100C20002DE9F04D92469B4611B1B1FA81F202E0F6
:100C3000B0FA80F220329046FFF7F2FD04460F46EC
:100C400040EA0A0041EA0B0153465A46084313D0D2
:100C5000114653EA010019D0C8F140025046FFF78F
:100C6000EEFD05460E46504659464246FFF7D8FD72
:100C7000084305D0012004E020463946BDE8F08D48
:100C80000020054346EAE0762C4337430A98630583
:100C9000E40AA0EB08000022FD0A44EA47540A30A7
:100CA00002D500200146E9E7010510196941DDE997
:100CB000084500196941BDE8F04DA2E77F2801D938
:100CC000002208E0064A02EB5002C007127800D169
:100CD000120902F00F020120904008407047000006
:100CE000E42C0008F0B587B006460121042000F08E
:100CF00059FF0121202000F071FF00248DF81A40D7
:100D000001208DF81B0002258DF819508DF8185020
:100D1000802105911A4F05A9384600F035FC8DF861
:100D200018504020059005A9384600F02DFC0822F7
:100D30000621384600F066FC08220721384600F0FC
:100D400061FC0196ADF80840ADF80A40ADF80C40E2
:100D5000ADF810400C20ADF80E000A4C01A9204659
:100D600001F056FB00F022F8012240F22551204606
:100D700001F033FB0121204601F0FCFA07B0F0BD81
:100D8000000802400014014010B54FF41650FFF760
:100D9000A9FF04490020087048700349A1F83401F4
:100DA00010BD000080000020B000002008B54FF406
:100DB000A06000F0C1FE47208DF8000001208DF8F2
:100DC000010003218DF802108DF80300684600F041
:100DD0007FFE08BD70B5134D6878012821D005F15C
:100DE000080211A11148FFF7FDF9114C00280BDD95
:100DF00095ED020ADFED0F0A20EE200ABCEEC00AD4
:100E000010EE100AA4F8AA0000F00EFCA98804F560
:100E10009074411A2180686000202870208D401C49
:100E2000208570BD80000020256600003809002064
:100E3000B00000200000C84208484178012905D1CF
:100E4000074AB2F83411491CA2F83411002101708C
:100E5000012141705A21034801F041BB800000206C
:100E6000B000002000140140FEE700002DE9F04131
:100E700086B007460121084600F094FE0121C8040F
:100E800000F09EFE00248DF8164001268DF81760B4
:100E900002258DF815508DF814500495DFF86C80FC
:100EA00004A9404600F070FB8DF81450049604A984
:100EB000404600F069FB08220021404600F0A2FBFA
:100EC00008220121404600F09DFB0097ADF8044048
:100ED000ADF80640ADF80840ADF80C400C20ADF878
:100EE0000A000B4C6946204601F092FA00F02EF8F9
:100EF000012240F22551204601F06FFA01212046DF
:100F000001F038FA06B0BDE8F081000000000240B0
:100F1000004C004010B54FF4E130FFF7A7FF062169
:100F2000084800F073F807498871000AC87100206A
:100F3000083948708870044AA2F82C0155200870BE
:100F400010BD000048000020B000002008B54FF49C
:100F5000A06000F0F1FD34208DF8000001208DF834
:100F6000010003218DF802108DF80300684600F09F
:100F7000AFFD08BD70B5154D68782978884224D337
:100F8000134A1078012820D1507803281DD1907879
:100F900050281AD100200F4C02EB40010B79C97880
:100FA00043EA012124F81010401C2828F4DB00F04B
:100FB0003BFBA98804F58C74411A21806860208D60
:100FC000401C208500206870A87070BD4000002083
:100FD00002060020B000002009488178012905D1CF
:100FE000084AB2F82C11491CA2F82C1100214170BA
:100FF00001218170024908220831034801F07BBABF
:1010000040000020B0000020004C004030B50246F7
:101010004FF6FF70064D07E012F8013B4340DBB28C
:10102000040A35F813006040491EC9B2F4D230BD3D
:10103000E42A0008F0B587B006460121022000F03E
:10104000B1FD0121880400F0BBFD00248DF81A4099
:1010500001208DF81B0002258DF819508DF81850CD
:10106000C10205911A4F05A9384600F08DFA8DF896
:1010700018506802059005A9384600F085FA072245
:101080000A21384600F0BEFA07220B21384600F04C
:10109000B9FA0196ADF80840ADF80A40ADF80C4039
:1010A000ADF810400C20ADF80E000A4C01A9204606
:1010B00001F0AEF900F022F8012240F2255120465D
:1010C00001F08BF90121204601F054F907B0F0BD81
:1010D000000402400048004010B54FF4E130FFF733
:1010E000A9FF04490020087048700349A1F83201A3
:1010F00010BD00008C000020B000002008B54FF4A7
:10110000A06000F019FD27208DF8000001208DF867
:10111000010003218DF802108DF80300684600F0ED
:10112000D7FC08BDF0B52DED028B81B000F07CFA44
:1011300004463D4D3D4E687830B13D4FB2EE048AD5
:10114000F87844280FD036E0A868201AB0F5FA7F66
:1011500005D9B6F83201401CA6F83201AC6001B0E6
:10116000BDEC028BF0BD304832A11430031F00905B
:101170001A1F2F48FFF736F803281CD195ED030AF4
:1011800020EE080ABDEEC00A10EE100A26F8B40FD1
:1011900095ED040A20EE080ABDEEC00A10EE100A12
:1011A000708095ED050A20EE080ABDEEC00A10EE2B
:1011B000100AB080B43EF878482827D11A4823A1F5
:1011C0002030031F00901A1F1948FFF70BF803285F
:1011D0001CD195ED060A20EE080ABDEEC00A10EEFD
:1011E000100A26F8BA0F95ED070A20EE080ABDEEA0
:1011F000C00A10EE100A708095ED080A20EE080A69
:10120000BDEEC00A10EE100AB080BA3EA88806F5FE
:101210008F76201A30806C60308D401C3085002025
:10122000287068709BE700008C000020B000002050
:10123000380A00202449534450542C2025662C4D54
:101240002C25662C422C25662C432A002449534821
:1012500050522C2025662C25662C25662A0000007D
:101260007047000070B501460F4DA868427842F003
:101270008002427081700321FFF7C8FEA968C87020
:10128000000A08710024094EA868015D304601F08B
:1012900021F94021304601F079F80028F9D0641C8A
:1012A000052CF1DB70BD000024000020001001407F
:1012B00001490860704700000C3C024070B50646CA
:1012C0000025002905D0012927D0022928D04FF474
:1012D000407500F081F809281ED1134C206820F4D5
:1012E00040702060206828432060206820F0F800CB
:1012F0002060206846F0020108432060206840F426
:101300008030206000F068F8216821F0020121603F
:10131000216821F0F801216070BD4FF48075D8E795
:101320004FF40075D5E70000103C024009200D493C
:101330000A68D20301D5012070470A68D20601D598
:10134000062070470A68D20501D5022070470A6856
:1013500012F0E00F01D00720704709688907FBD51C
:10136000082070470C3C02400248016841F00041EF
:1013700001607047103C024070B505460E4600F013
:101380002BF8092813D10A4C206820F44070206003
:10139000206840F480702060206840F001002060E8
:1013A0002E8000F019F8216821F00101216070BD44
:1013B000103C024005480068002805DA034804494B
:1013C0000C3801600349016070470000103C024086
:1013D00023016745AB89EFCD08B509200090FFF7E1
:1013E000A5FF009002E0FFF7A1FF00909DF800002C
:1013F0000128F8D09DF8000008BD0000014600203B
:10140000A1F100624FF480439A4204D3204808447B
:10141000984201D2082070471E480844984201D2E1
:10142000102070471C480844984201D21820704789
:101430001A480844B0F5803F01D220207047184870
:101440004FF400320844904201D2282070471548DA
:101450000844904201D2302070471348084490421B
:1014600001D23820704711480844904201D24020F0
:1014700070470F480844904201D2482070470D48F9
:101480000844904201D25020704758207047000015
:1014900000C0FFF70080FFF70040FFF70000FFF7F4
:1014A0000000FEF70000FCF70000FAF70000F8F774
:1014B0000000F6F70000F4F710B5002305E030F85F
:1014C000024B22F813405B1CDBB28B42F7D310BDFA
:1014D0002DE9F04105460E461746FFF76BFFF32056
:1014E000FFF7E6FE2846FFF789FF044605EB4600B6
:1014F000FFF784FF804608E002212046FFF7DEFE6A
:10150000092800D0FEE70834A4B24445F4D90024E9
:101510000AE037F814102846FFF72EFF092800D0FC
:10152000FEE7AD1C641CA4B2B442F2D3BDE8F041A6
:10153000FFF71ABF7CB50121022000F033FB4FF406
:101540008054009400208DF8060002208DF80700DA
:1015500001218DF804108DF805000A4E69463046C9
:1015600000F012F8650000956946304600F00CF86E
:101570002146304600F056F82946304600F052F831
:101580007CBD0000000402402DE9F041002201274B
:101590004FF0030C07FA02F50B682B40AB422CD13D
:1015A000066853000CFA03F4A64306600E79D0F8DF
:1015B00000809E4046EA080606600E79012E01D0A2
:1015C000022E12D18668A64386604E79D0F8088034
:1015D0009E4046EA080686604668AE434660456817
:1015E0008E799640B6B235434560C568A543C5605F
:1015F000CC799C40C3681C43C460521C102AC9D3D8
:10160000BDE8F08110B54B07DB0E9A40C90800EB2E
:101610008100016A0F249C40A1430162016A1143C9
:10162000016210BD018370470148406870470000A7
:10163000380000200A2806D204490A5C1AB10022A8
:101640000A5401207047002070470000F805002070
:10165000FEE710B545F2555000F032F8022000F0D8
:1016600023F840F6FF7000F025F800F015F8BDE80B
:10167000104000F001B8000002494CF6CC40086070
:10168000704700000030004002494AF6AA20086076
:10169000704700000030004002494AF6AA20086066
:1016A000704700000030004001494860704700006A
:1016B0000030004001498860704700000030004061
:1016C00001490860704700000030004070B586B0E6
:1016D0000121084600F066FA0121102000F07EFA90
:1016E00000248DF8164001208DF8170002258DF892
:1016F00015508DF81450400204901C4E04A9304639
:10170000FFF742FF8DF814506902049104A9304696
:10171000FFF73AFF07220A213046FFF773FF07223F
:1017200009213046FFF76EFF4FF4E1300090ADF82D
:101730000440ADF80640ADF80840ADF80C400C2070
:10174000ADF80A000A4C6946204600F061FE00F040
:1017500011F8012240F22551204600F03EFE012101
:10176000204600F007FE06B070BD000000000240F9
:101770000010014008B54FF4A06000F0DDF925200D
:101780008DF8000001208DF801008DF802008DF821
:101790000300684600F09CF908BDFEE70248C188D6
:1017A000491CC18070470000240000202DE9F0434F
:1017B000874CA0684178002904D0CA1F082A01D3A9
:1017C000102902D90120BDE8F0832179A1F1080296
:1017D000F32A01D30320F6E7891EC9B2FFF716FCEE
:1017E0002179A268114411F8023D497843EA0121A8
:1017F000884201D00320E6E7D078917840EA0121C1
:101800005079137940EA03205378DFF8C8C10126E4
:10181000012B01D0022B3CD1B0F5707F01D9032000
:10182000D1E70B18C82B01D90220CCE7921C430743
:1018300007D0C3085B1C02F8013B0D4600230027BC
:1018400021E0C308F7E73CF81580B8F1000F08D095
:1018500092F8008006FA03F948EA090882F8008045
:1018600007E092F8008006FA03F928EA090882F8EE
:1018700000805B1CDBB2082B01D30023521C6D1CC3
:10188000ADB27F1CBFB28742DDD3A2689278521DF1
:101890006271A36808275A78052A10D1C82901D394
:1018A000022090E7B0F57F4F02D020B103208AE7F5
:1018B0002CF8116002E000222CF8112067715A7890
:1018C0000F2A23D10A18C82A01D902207BE7002257
:1018D000DB1D0CEB410C002515E093F8008006FAA7
:1018E00002F918EA090F02D04FF0010801E04FF0A9
:1018F00000082CF8028B521CD2B2082A01D3002215
:101900005B1C6D1CADB28542E7D36771A368DFF83D
:10191000C8C05A78032A01D0042A22D17D2801D9CF
:10192000032050E70A18C82A01D902204BE70CEB24
:10193000410245009D70DB1C00250CE0B2F80080E0
:101940004FEA182803F8018B92F8008003F8018B06
:10195000921C6D1CADB28542F0D3A2689278521DE4
:101960006271A3685A78062A0CD1C82901D30220D3
:1019700029E7A1F16402142A00D266702CF8110044
:10198000267067715A78102A20D10A18C82A01D9FE
:10199000022018E7DB1D0CEB410200250EE013F8D6
:1019A00001CB4FEA0C2CA2F800C013F8018B48EAD7
:1019B0000C08A2F80080921C6D1CADB28542EED3DB
:1019C00026706439142900D2667067710020FAE627
:1019D0002400002040020020B000002030B599B063
:1019E000154D1448A86000F58070E860134C4FF462
:1019F0009060608001202080A088401CA080FFF7BC
:101A000013FE2861FFF7B6FE6088642110FB01F029
:101A1000FFF75CFE6088642110FB01F3B4F900203D
:101A200007A1684600F018FF6946114800F07AFDEA
:101A300019B030BDD0030020240000202C0200206B
:101A400050726F6772616D20496E697469616C696B
:101A50007A652873746174696F6E3A2025642C204E
:101A600062617564726174653A202564000000004B
:101A70000010014070B5134CE088052821D9A168F9
:101A8000E068A060E160A17821710025A5700122C5
:101A9000E270082914D30C4E0078B6F97C11884204
:101AA0000ED1FFF783FE10B1FFF7DCFB01E000F081
:101AB0004DF8FFF7B9FD218A411AA6F8821120617D
:101AC000E58070BD24000020B000002070470000B9
:101AD00030B50F23C27801250178002A1FD0154A9E
:101AE000126802F4E062C2F5E062C2F30722C2F1BA
:101AF0000404D3404278A24084781C40144322015D
:101B000001F1E02181F80024007800F01F018D40F0
:101B10004009800000F1E020C0F8005130BD01F024
:101B20001F0085404809800000F1E020C0F8805186
:101B300030BD00000CED00E0024908430249086096
:101B4000704700000000FA050CED00E070B5124D82
:101B50006879801EC1B2A868FFF758FA6A79A96847
:101B60000A4402F8020C6A79000A114401F8010CD7
:101B700000240A4E0BE0A868015D304600F0AAFC84
:101B80004021304600F002FC0028F9D0641C68793E
:101B90008442F0DB70BD00002400002000100140F2
:101BA00070470000054A002903D011680143116005
:101BB000704711688143116070470000303802405F
:101BC000054A002903D0116801431160704711686C
:101BD000814311607047000040380240054A0029E7
:101BE00003D011680143116070471168814311608F
:101BF000704700004438024070B5244B196801F06A
:101C00000C01234C00291ED0224E04291DD0082986
:101C10001DD00460196801F0F00109091E4A545CE6
:101C20000168E14041601C6804F4E054A40A145DBA
:101C300021FA04F484601B6803F460435B0BD25CFC
:101C4000D140C16070BD0460E4E70660E2E70F4A7E
:101C5000121F1168C1F38055116801F03F0135B1C1
:101C6000B6FBF1F11468C4F38814614305E0B4FBDA
:101C7000F1F11468C4F3881461431268C2F301429D
:101C8000521C5200B1FBF2F10160C3E70838024078
:101C90000024F40040787D0114000020F0B587B0E6
:101CA000064601211020FFF77DFF01218807FFF77D
:101CB00087FF00248DF81A4001208DF81B000225B3
:101CC0008DF819508DF81850010205911A4F05A989
:101CD0003846FFF759FC8DF818508020059005A96B
:101CE0003846FFF751FC082207213846FFF78AFCE7
:101CF000082211463846FFF785FC0196ADF80840EA
:101D0000ADF80A40ADF80C40ADF810400C20ADF82D
:101D10000E000A4C01A9204600F07AFB00F032F8D0
:101D2000012240F22551204600F057FB01212046B8
:101D300000F020FB07B0F0BD00100240007800402A
:101D400010B54FF41640FFF7A9FF06210A48FFF728
:101D50005DF909498871000AC87100200839487086
:101D60008870064AA2F82C0107200870BDE81040D0
:101D7000034800F036B9000078000020B0000020D1
:101D80000409002008B54FF4A060FFF7D5FE5220EB
:101D90008DF8000001208DF8010003218DF802105C
:101DA0008DF803006846FFF793FE08BD2DE9F0416A
:101DB000284E70783178884249D32749087801281D
:101DC00045D14878032842D1887802283FD1234D55
:101DD000288868800A79C97842EA012125F8A01983
:101DE0000A1A14B24FF480634FF44067994209D243
:101DF000B84207D904F5805424B2B5F8A620521C85
:101E0000A5F8A620B94209D9984207D2A4F5805472
:101E100024B2B5F8A600401EA5F8A600FFF704FC02
:101E2000B18805F58E75411A29807060B5F90020DA
:101E300021460B4800F0B5F8094800F0A5F825F850
:101E4000780C288D401C288500207070B070BDE88B
:101E5000F0810000700000200408002050010020E4
:101E60000409002009488178012905D1084AB2F8FF
:101E70003011491CA2F830110021417001218170FC
:101E8000024908220831034800F035BB70000020E9
:101E9000B000002000780040704700001CB5002111
:101EA000019100912E4A106840F4803010604FF488
:101EB000A043106800F4003000900198401C01908D
:101EC000009810B901989842F3D11068800302D5A8
:101ED0000120009000E00091009801283FD12048A7
:101EE0004030016841F0805101601E49086840F4AB
:101EF000404008601A48083003680360036843F4F0
:101F000000430360036843F4A0530360041F164BAF
:101F10002360136843F08073136013689B01FCD542
:101F20000A6842F480320A604A68D203FCD50A6823
:101F300042F400320A604A689203FCD50B4A40F230
:101F400005711160016821F003010160016841F031
:101F5000020101600168C1F381010229FAD11CBDAF
:101F60000038024000700040195A4007003C02400F
:101F70000A2805D2034A22F81010143222F8101051
:101F800070470000D00500208168002907D0406814
:101F90004FF47A72504390FBF1F000B2704700208A
:101FA000704730B543685C184460038800EB430316
:101FB000B3F90C50641B4460846814448460B3F922
:101FC0002050641B84609981018800EB41010A84E0
:101FD0000188491C89B201800A2901D300210180AE
:101FE00030BD00230380438043608360002100EB09
:101FF000410293811384491C0A29F8DB70470000D1
:1020000070B5FFF7CBFB13484168491C416001687C
:1020100011B90168491E016000200F4B0124A3F192
:102020001401A1F1140531F8102052B131F810203B
:10203000012A00D11C5431F81020521E21F8102022
:1020400003E035F8102021F81020401C0A28EADBB4
:1020500070BD000038000020F805002010B51648BB
:1020600042F210710068B0FBF1F0401E00214FF009
:10207000E022B0F1807F01D3012007E050610F4BD7
:10208000F0201870916107201061002000B1FEE778
:10209000106960F0010010610020094A02F1140388
:1020A00002F1280422F8101023F810102154401CCB
:1020B0000A28F7DB10BD00000000002023ED00E03F
:1020C000D005002010B51248016841F4700101608C
:1020D0001048016841F0010101600E4A00210832F8
:1020E000116002680C4B1A400260031D0B4A1A6013
:1020F000026822F48022026006480C300160FFF77B
:10210000CDFE03494FF000608039086010BD00002B
:1021100088ED00E000380240FFFFF6FE103000249A
:1021200070B5104C40F22551204600F036F940B110
:10213000204600F0CBF90C4B59784A1C5A700B4AD8
:10214000505440F227752946204600F026F9002811
:1021500006D029462046BDE87040002200F03DB977
:1021600070BD0000004C004040000020020600202E
:1021700070B5104C40F22551204600F00EF940B1E8
:10218000204600F0A3F90C4B59784A1C5A700B4AB0
:10219000505440F227752946204600F0FEF80028EA
:1021A00006D029462046BDE87040002200F015B94F
:1021B00070BD00000078004070000020040800207E
:1021C00070B5164C40F22551204600F0E6F8A8B153
:1021D000204600F07BF9C1B2114B0025D87860B1E0
:1021E0001048B0F97C01884202D0987800B9DD70BF
:1021F0009A78501C9870D8688154DD8040F2277519
:102200002946204600F0C9F8002806D02946204675
:10221000BDE87040002200F0E0B870BD0010014041
:1022200024000020B000002070B5104C40F2255171
:10223000204600F0B2F840B1204600F047F90C4BC0
:1022400099784A1C9A700B4A505440F227752946D7
:10225000204600F0A2F8002806D029462046BDE816
:102260007040002200F0B9B870BD0000004400408A
:10227000500000200207002070B5204D40F225518B
:10228000284600F08AF848B3284600F01FF9C1B28A
:102290001B4AB2F83C01401CA2F83C010126194837
:1022A000194C2A290BD12278142A08D9637833B91A
:1022B000531CDBB2237081540022C2546670227812
:1022C00022B1637813B9531C23708154242905D19A
:1022D00022781AB962780AB92670017040F2277420
:1022E0002146284600F059F8002806D02146284605
:1022F000BDE87040002200F070B870BD004800409A
:10230000B0000020380A00208C00002070B5164D67
:1023100040F22551284600F040F8A0B1284600F0D0
:10232000D5F8C2B2114C607801280CD12378104E38
:10233000581CC1B22170F2540D2A04D100204A1C4D
:1023400022707054607040F227742146284600F0D5
:1023500024F8002806D021462846BDE87040002217
:1023600000F03BB870BD0000001401408000002068
:1023700038090020002904D0818941F4005181816D
:102380007047818921F40051818170470246002005
:1023900012880A4200D00120704770B5002440F630
:1023A0006A12C1F3421301F01F05012606FA05F275
:1023B000012B0CD0022B0DD0838A1340090A8E40CA
:1023C000008830400BB100B10124204670BD8389E4
:1023D0001340F3E7038A1340F0E710B540F66A13A1
:1023E000C1F3421301F01F040121A140012B07D0CA
:1023F000022B07D014303AB102680A43026010BDC4
:102400000C30F8E71030F6E702688A43026010BD2E
:102410007FB504460D46208A20F44051E8880843E1
:102420002082A08941F20C618843A9882A8911433E
:102430006A8902431143A181A08A20F44071A889CE
:102440000843A0826846FFF7D7FB1E48844202D0AB
:102450001D48844201D1039800E00298A189090433
:1024600008D500EBC00101EB001029684900B0FB62
:10247000F1F007E000EBC00101EB001029688900D2
:10248000B0FBF1F06422B0FBF2F109010B096FF02F
:1024900018056B4300EB8300A3891D044FF0320342
:1024A00007D503EBC000B0FBF2F000F007000843D3
:1024B00006E003EB0010B0FBF2F000F00F00084361
:1024C00020817FBD00100140001401408088C0F3CE
:1024D00008007047C1F3080181807047FEE710B51E
:1024E00004462046FFF7F6FF80212046FFF74EFF07
:1024F0000028F9D010BD2DE9F04107460D461646DB
:1025000000240BE015F8011B3846FFF7E3FF80219C
:102510003846FFF73BFF0028F9D0641CB442F1DBDA
:10252000BDE8F08170B506460D4600243046295DB1
:10253000FFF7D5FF641C285D0028F7D14021304605
:10254000FFF724FF0028F9D070BD0000F0B587B078
:10255000064601210846FFF725FB01214804FFF745
:102560002FFB00248DF81A4001208DF81B00022556
:102570008DF819508DF81850082105911A4F05A9AA
:102580003846FFF701F88DF818500420059005A98A
:102590003846FEF7F9FF072202213846FFF732F8E6
:1025A000072203213846FFF72DF80196ADF80840C1
:1025B000ADF80A40ADF80C40ADF810400C20ADF875
:1025C0000E000A4C01A92046FFF722FF00F02CF86C
:1025D000012240F225512046FFF7FFFE012120464F
:1025E000FFF7C8FE07B0F0BD000002400044004005
:1025F00010B54FF4E130FFF7A9FF094900208870BA
:10260000C8700849A1F82C01054806211830FEF7CA
:10261000FDFC034918318871000AC87110BD000023
:1026200050000020B000002008B54FF4A060FFF774
:1026300083FA26208DF8000000208DF8010001208B
:102640008DF802008DF803006846FFF741FA08BDD7
:1026500070B5354EB0783178884226D3334A00259C
:10266000104611788078324C01291FD002291CD1E4
:1026700004281AD1002002EB40010B79C97843EA03
:10268000012300F1570124F81130401C0228F2DB2D
:10269000FEF7CAFF318904F59174411A2180B060B8
:1026A000208D401C2085B570F57070BD51781029C3
:1026B00015D00329F9D17178B9B12828F5D10020B6
:1026C00002EB40010B79C97843EA012300F1640170
:1026D00024F81130401C1428F2DB757015E024F842
:1026E000E05F65801348057070BD5028FCD1002064
:1026F00002EB40010B79C97843EA012300F128017C
:1027000024F81130401C2828F2DBFEF78DFFB18839
:1027100004F58D74411A21807060208D401C208545
:10272000B570F57070BD0000500000200207002059
:10273000B00000202500002030B5C1B001208DF888
:10274000040010208DF8050003208DF80600E82015
:102750008DF8070000208DF8080014208DF809007E
:1027600028208DF80A000020104B01AC00F1640114
:1027700004EB400233F811100D0AD5711172401CA0
:102780001428F3DB0A49082008702F2101A8FEF75E
:102790003DFC8DF83300000A8DF83400312201A988
:1027A0000448FFF7A8FE41B030BD0000B000002093
:1027B00050000020004400402DE9F041234CE07817
:1027C000012808D1E1682248012913D0B0F8361158
:1027D000491CA0F836111D4D60781035552700268C
:1027E00070B10320A8701820E870142068712D20A3
:1027F00020700AE0B0F82E11491CA0F82E11EAE76B
:10280000AE70EE70282068712770104806211030D5
:10281000FEF7FCFBA871000AE871A6700125E570BF
:102820000C48E16849B10921217008490822183192
:10283000FFF761FEE660BDE8F081277003490822DA
:102840001031FFF758FEE560F5E70000500000206A
:10285000B0000020004400400FB4084B10B504A99C
:1028600002AA039800F022F8044602A9002000F012
:10287000C7F8204610BC5DF814FB0000012A0008D0
:1028800002E008C8121F08C1002AFAD17047704739
:10289000002001E001C1121F002AFBD1704730382F
:1028A0000A2801D201207047002070472DE9FF4F10
:1028B00089B09B460446002506E025280BD05A46E1
:1028C0000B999047641C6D1C20780028F5D10DB041
:1028D0002846BDE8F08F0027B8460122474900E0AE
:1028E000074314F8013F203B02FA03F00842F7D1F6
:1028F00020782E2819D114F8010F47F004072A2850
:102900000ED06FF02F022078A0F1300109290CD8E9
:1029100008EB880102EB410100EB0108641CF2E7BF
:102920000A98641C50F8048B0A9020780028CED0B6
:10293000642808D0692806D075281ED05A460B99FD
:1029400090476D1C58E00A994FF00A0901C90A9195
:10295000002802DA40422D2102E0390504D52B215E
:102960008DF82010012103E0F90704D02021F7E7BA
:102970008A4608AE0DE00021FAE70A994FF00A09ED
:1029800001C90A91F7E74946FDF7E4FD303106F841
:10299000011D0028F7D1ADEB060000F120097807F2
:1029A00001D44FF00108C84502DDA8EB090000E0A2
:1029B00000208046002706E008A85A46C05D0B9913
:1029C00090476D1C7F1C5745F6DB04E030205A46CB
:1029D0000B9990476D1CB8F10001A8F10108F5DCD6
:1029E00005E016F8010B5A460B9990476D1CB9F19A
:1029F0000001A9F10109F4DC641C65E70928010064
:102A00000A68531C0B60107070470000FFF726FB2C
:102A1000FEF790FD2E4A2F4D164664212846FEF7FC
:102A20004BFDFEF7DBFFFEF775FAFFF7E1FDFFF761
:102A300087F9FEF751FBFEF7A7F94FF4FA71002072
:102A4000FFF796FAC8210120FFF792FA4FF4FA61D6
:102A50000220FFF78DFAFEF7FCFD1F4CFFF70AF886
:102A6000FEF788FAFFF7F4FDFFF7A0F9FEF75AFB2F
:102A7000FEF7B0F90020FEF7DDFD30B1FEF704FEF1
:102A80001648016881F4005101600120FEF7D2FD73
:102A900058B1FEF7A1FA12480078012815D0FFF7C7
:102AA0008BFEFFF7DFF9FEF7C7F90220FEF7C2FD44
:102AB0000028D3D020780028D0D032466421284680
:102AC000FEF706FD00202070C8E7FFF735FEE8E7B7
:102AD00078010020000001082400002014040240B6
:102AE000250000200000C1C081C1400101C3C00316
:102AF000800241C201C6C006800741C70005C1C5AA
:102B000081C4400401CCC00C800D41CD000FC1CF69
:102B100081CE400E000AC1CA81CB400B01C9C00959
:102B2000800841C801D8C018801941D9001BC1DBF9
:102B300081DA401A001EC1DE81DF401F01DDC01DA9
:102B4000801C41DC0014C1D481D5401501D7C017C9
:102B5000801641D601D2C012801341D30011C1D1D9
:102B600081D0401001F0C030803141F10033C1F319
:102B700081F240320036C1F681F7403701F5C035A9
:102B8000803441F4003CC1FC81FD403D01FFC03F69
:102B9000803E41FE01FAC03A803B41FB0039C1F959
:102BA00081F840380028C1E881E9402901EBC02BB9
:102BB000802A41EA01EEC02E802F41EF002DC1EDA9
:102BC00081EC402C01E4C024802541E50027C1E7C9
:102BD00081E640260022C1E281E3402301E1C021D9
:102BE000802041E001A0C060806141A10063C1A3D9
:102BF00081A240620066C1A681A7406701A5C065A9
:102C0000806441A4006CC1AC81AD406D01AFC06F68
:102C1000806E41AE01AAC06A806B41AB0069C1A958
:102C200081A840680078C1B881B9407901BBC07BF8
:102C3000807A41BA01BEC07E807F41BF007DC1BDA8
:102C400081BC407C01B4C074807541B50077C1B7C8
:102C500081B640760072C1B281B3407301B1C071D8
:102C6000807041B00050C190819140510193C05398
:102C7000805241920196C056805741970055C195A8
:102C800081944054019CC05C805D419D005FC19F68
:102C9000819E405E005AC19A819B405B0199C05958
:102CA000805841980188C04880494189004BC18BB8
:102CB000818A404A004EC18E818F404F018DC04DA8
:102CC000804C418C0044C184818540450187C047C8
:102CD000804641860182C042804341830041C181D8
:102CE00081804040DDDDDDDDDCBBBBDDDDDDDDDD4C
:102CF000DDDDDDDD98888888888888887777777734
:102D000077888888855555566666666666666666FF
:102D100066688888833333322222222222222222AA
:102D20002228888D442D000800000020B0000000FB
:102D300080280008F42D0008B0000020880E000054
:102D4000902800080095BA0A00000000000000006A
:102D50000102030406070809000000000102030441
:102D6000010203040607080900000000000000003B
:102D70000000000000000000000000000000000053
:102D800000000000550000000000000001030000EA
:102D900000280000550000000000000000000000B6
:102DA00000000000010300000028000002030000F2
:102DB00000020000550000000000000001030000B8
:102DC0000001000000000000000000000000000002
:102DD00000000000000000000000000000000000F3
:102DE00000000000000000000000000000000000E3
:042DF00000000000DF
:04000005080001AD41
:00000001FF
